:020000040800F2
:10000000B008002001010008D52C00083D29000897
:10001000952C0008CB060008753800080000000089
:10002000000000000000000000000000B5300008E3
:10003000CF0600080000000089300008B730000833
:100040001B0100081B0100081B0100081B01000820
:100050001B0100081B0100081B0100081B01000810
:100060001B0100081B0100081B0100081B01000800
:100070001B0100081B0100081B0100081B010008F0
:100080001B0100081B0100081B0100081B010008E0
:100090001B0100081B0100081B0100081B010008D0
:1000A0001B010008393100081B0100082931000834
:1000B000493100081B0100081B0100081B01000852
:1000C0001B0100081B0100081B0100081B010008A0
:1000D0001B010008553800081B010008653800089E
:1000E0001B0100081B0100081B010008DFF80CD0F1
:1000F00000F0AEFA00480047DD3A0008B0080020E2
:100100000648804706480047FEE7FEE7FEE7FEE7B1
:10011000FEE7FEE7FEE7FEE7FEE7FEE72531000823
:10012000ED000008202A04DB203A21FA02F0002129
:10013000704721FA02F3D040C2F1200291400843F7
:1001400019467047D2B201E000F8012B491EFBD2DC
:1001500070470022F6E710B513460A4604461946D2
:10016000FFF7F0FF204610BD2DE9FE4F804681EAE3
:100170000300C00F0C46009021F0004123F0004521
:10018000B8EB0200A94105D24046214690461C46E4
:100190000B46024623F00040104347D0270DC7F31B
:1001A0000A00C3F30A510290401A019040286BDA0A
:1001B000C3F3130040F4801B0098924620B1002343
:1001C000D2EB030A63EB0B0B01985946C0F14002D6
:1001D000504600F0BFF906460D4650465946019A72
:1001E00000F0C7F910EB08006141002487EA1152C2
:1001F00084EAE7731A4340D0009A62B3019A012A55
:100200004FEA075215DC001B61EB02014FF0004280
:1002100002EA0752CDE90042001C41F58011324646
:100220002B4600F0C7F903B0BDE8F08F40462146E9
:10023000F9E7001B61EB0201001C41F58013001877
:100240005B412018A2F5001747EB030140EAD57087
:10025000B6196D4111E06D084FEA360645EAC075E2
:100260004FEA0752001B61EB0201001C41F58011AF
:1002700049084FEA30000019514132462B4603B07D
:10028000BDE8F04F00F087B900980122400000233C
:10029000D0EB020263EBE073009821464FEAE07472
:1002A000B8EB000061EB0401E9E783F000435BE792
:1002B00081F0004158E72DE9FE4F81EA030404F084
:1002C000004421F0004100944FF0000B23F0004364
:1002D00050EA01045ED052EA03045BD0C3F30A542F
:1002E000C1F30A552C44A4F2F3340194A0FB025448
:1002F000C1F3130141F48011C3F3130343F48013DA
:1003000001FB024400FB034E840A970A44EA81542D
:1003100047EA8357A4FB076802958D0A05FB07850A
:100320004FEA932C04FB0C542705029D4FEA065814
:1003300047EA1637B5EB08056EEB070C870E920EF1
:1003400047EA811742EA8312A7FB0201B6EB0B01D1
:1003500064EB00042B0D43EA0C335E1844EB1C5095
:10036000DA465146E7FB0201C5F313044FEA0B33AB
:1003700043EA14534FEA0432019C43EA0603A4F112
:100380000C040294009CCDE900B400F013F903B012
:10039000BDE8F08F00200146F9E72DE9F04D81EA34
:1003A000030404F0004B21F0004514464FF0000A0E
:1003B00023F0004150EA050220D054EA01021DD08A
:1003C000C5F30A570246C5F31303C1F31300C1F383
:1003D0000A5640F4801543F48013A7EB0608101B5F
:1003E000D64608F2FD3873EB050002D308F1010888
:1003F00001E092185B41B8F1000F03DA00200146DA
:10040000BDE8F08D00204FF48011064684460EE0D2
:10041000171B73EB050705D3121B63EB050306439C
:100420004CEA010C49084FEA300092185B4150EA4F
:100430000107EDD152EA030012D082EA040083EAF8
:100440000501084305D0101BAB4106D20122002351
:1004500006E000224FF0004302E06FF0010253106B
:100460001AEB06004CEB085110EB0A0041EB0B01B4
:10047000BDE8F04D00F08FB80EB5C10F80EAE07016
:100480000844CA07002140F233438DE80E000A46B3
:100490000B4600F08FF803B000BD0EB540F23341BB
:1004A00002910021CDE900110A460B4600F082F8C6
:1004B00003B000BD70B5C1F30A5201F0004500243D
:1004C000C1F3130140F2FF3341F480119A4201DA83
:1004D000002070BD40F233439A42A2F2334203DC63
:1004E0005242FFF71FFE00E090402C43F1D0404203
:1004F00070BD000030B5041E71F1000404DB4FF044
:100500000044404264EB0101141E73F1000405DB5A
:100510001C464FF00043524263EB04038B4208BF7A
:10052000824230BD30B5041E71F1000404DB4FF08F
:100530000044404264EB0101141E73F1000405DB2A
:100540001C464FF00043524263EB0403994208BF3C
:10055000904230BD202A04DB203A00FA02F100204C
:1005600070479140C2F1200320FA03F319439040F1
:100570007047202A06DBCB17203A41FA02F043EA03
:10058000E07306E041FA02F3D040C2F1200291404C
:1005900008431946704710B5141E73F1000408DAB9
:1005A000401C41F1000192185B411A4301D120F037
:1005B000010010BD2DE9F04D92469B4611B1B1FAF4
:1005C00081F202E0B0FA80F220329046FFF7C2FFDB
:1005D00004460F4640EA0A0041EA0B0153465A46D8
:1005E000084313D0114653EA010019D0C8F1400264
:1005F0005046FFF797FD05460E465046594642467F
:10060000FFF7A8FF084305D0012004E02046394643
:10061000BDE8F08D0020054346EAE0762C433743E1
:100620000A986305E40AA0EB08000022FD0A44EAE8
:1006300047540A3002D500200146E9E701051019A8
:100640006941DDE9084500196941BDE8F04DA2E7BF
:10065000064C074D06E0E06840F0010394E807000F
:1006600098471034AC42F6D3FFF744FD904300089E
:10067000B043000870B58C1810F8015B15F0070343
:1006800001D110F8013B2A1106D110F8012B03E02B
:1006900010F8016B01F8016B5B1EF9D12B0705D433
:1006A0000023521E0DD401F8013BFAE710F8013B7C
:1006B000CB1A921C03E013F8015B01F8015B521E98
:1006C000F9D5A142D8D3002070BD00BFFEE7704726
:1006D00072B600BFFEE70146002291F82100022811
:1006E00008D00420886300BF002081F8200000BFEC
:1006F000012070470868006820F00E000B68186041
:100700000868006820F001000B68186091F840301C
:1007100001209840CB6B5860012081F8210000BF78
:10072000002081F8200000BF1046E2E770B50446C3
:10073000002594F82100022803D00420A06301259D
:1007400048E02068006820F00E00216808602068FA
:10075000006820F00100216808601F492068884275
:1007600001D1012026E01C4914312068884201D1C2
:1007700010201FE0184928312068884201D18015D7
:1007800018E015493C312068884201D1801411E0FD
:10079000114950312068884202D14FF4803009E07D
:1007A0000D4964312068884202D14FF4801001E085
:1007B0004FF08070084908394860012084F8210012
:1007C00000BF002084F8200000BF606B10B12046FD
:1007D000616B8847284670BD0800024070B504462A
:1007E00000F0AEF906462546681C10B104480078B2
:1007F000054400BF00F0A4F9801BA842FAD370BDE5
:10080000800000202DE9F8470346002294466EE15F
:100810004FF0010808FA02F4D1F8008008EA040059
:10082000A0427DD1DFF8DCA2D1F80480A8EB0A0950
:10083000D0453AD014DCB8F1030F50D009DCB8F140
:10084000000F31D0B8F1010F1CD0B8F1020F49D11F
:1008500020E0B8F1110F18D0B8F1120F42D11EE00C
:10086000B9F5881F25D006DCB9F5803F20D0B9F551
:10087000801F37D11AE0B9F5001F18D0B9F5041F51
:1008800030D117E0D1F80CC02DE0D1F80C8008F180
:10089000040C28E0D1F80C8008F1080C23E0D1F812
:1008A0000C8008F10C0C1EE000BF00BF00BF00BFB1
:1008B00000BF00BFD1F80880B8F1000F02D14FF09F
:1008C000040C0BE0D1F80880B8F1010F03D14FF010
:1008D000080C1C6102E04FF0080C5C6103E04FF073
:1008E000000C00E000BF00BFFF2801D8984601E0DF
:1008F00003F104084646FF2802D84FEA820803E0C5
:10090000A2F108084FEA88084746D6F800804FF061
:100910000F0909FA07F928EA09080CFA07F900E0B3
:1009200088E048EA0908C6F80080D1F8048008F099
:100930008058B8F1805F7DD100BFDFF8CC81D8F856
:10094000188048F00108DFF8C091C9F81880C8463F
:10095000D8F8188008F00108CDF8008000BF00BF6B
:100960004FEAB9384FEA920958F829504FEA82788D
:100970004FEA18794FF00F0808FA09F825EA080538
:10098000DFF88881434502D14FF0000816E0DFF818
:100990008081434502D14FF001080FE0DFF87481F8
:1009A000434502D14FF0020808E0DFF86C8143456F
:1009B00002D14FF0030801E04FF004084FEA8279BA
:1009C0004FEA197908FA09F848EA0505DFF84C8179
:1009D0004FEA920948F82950D1F8048008F4803889
:1009E000B8F5803F0AD1DFF83881D8F8008048EAAE
:1009F0000008DFF82C91C9F8008009E0DFF82081B9
:100A0000D8F8008028EA0008DFF81491C9F80080BF
:100A1000D1F8048008F40038B8F5003F10D1DFF8B1
:100A2000008108F10408D8F8008048EA0008DFF8DF
:100A3000F09000E05AE009F10409C9F800800DE0E7
:100A4000DFF8DC8008F10408D8F8008028EA000804
:100A5000DFF8CC9009F10409C9F80080D1F80480CE
:100A600008F48018B8F5801F0ED1DFF8B48008F1C3
:100A70000808D8F8008048EA0008DFF8A49009F1D7
:100A80000809C9F800800DE0DFF8948008F1080833
:100A9000D8F8008028EA0008DFF8849009F10809F6
:100AA000C9F80080D1F8048008F40018B8F5001FD8
:100AB0000ED1DFF86C8008F10C08D8F8008048EA05
:100AC0000008DFF85C9009F10C09C9F800800DE01E
:100AD000DFF84C8008F10C08D8F8008028EA0008FC
:100AE000DFF83C9009F10C09C9F80080521CD1F8DC
:100AF000008028FA02F8B8F1000F7FF489AEBDE853
:100B0000F8870000000011100010024000080140AA
:100B1000000C014000100140001401400800014099
:100B200000040140024693680B400BB1012000E035
:100B3000002070470AB1016101E00B0403617047B6
:100B400001480068704700007800002003480068F2
:100B5000034909780844014908607047780000207B
:100B60008000002010B50848006840F010000649D9
:100B70000860032000F0A8F80F2000F007F800F04C
:100B80002BF8002010BD00000020024070B5044684
:100B90000E4800784FF47A71B1FBF0F00C49096807
:100BA000B1FBF0F5284600F00BFC08B1012070BD48
:100BB000102C07D200222146501E00F047F80548AD
:100BC000046001E00120F2E70020F0E7800000204F
:100BD000840000207C00002008B500BF1148806917
:100BE00040F001000F4988610846806900F001006B
:100BF000009000BF00BF00BF0846C06940F08050B1
:100C0000C8610846C06900F08050009000BF00BF76
:100C100000BF0549486820F0E06040F0007048607F
:100C200000BF08BD00100240000001400146084618
:100C3000002809DB00F01F0301229A4043099B00B2
:100C400003F1E023C3F8002100BF70472DE9F05FF6
:100C500080460D461646002702F01EFE074639461E
:100C60002A46334601F00700C0F1070ABAF1040F23
:100C700002D94FF0040A01E0C0F1070AD14600F1A1
:100C8000040ABAF1070F02D24FF0000A01E0A0F106
:100C9000030AD4464FF0010A0AFA09FAAAF1010A36
:100CA0000AEA020A0AFA0CFA4FF0010B0BFA0CFBE3
:100CB000ABF1010B0BEA030B4AEA0B042146404659
:100CC00002F0F2FDBDE8F09F00BF00F00702064B06
:100CD00019684FF6FF031940044B0B4343EA022106
:100CE000014B196000BF70470CED00E00000FA05F1
:100CF00070B504460D460CB9012070BD5A48006815
:100D000000F00700A8420ED25748006820F0070004
:100D10002843554908600846006800F00700A842CB
:100D200001D00120E9E7207800F0020002281DD15F
:100D3000207800F00400042805D14C48406840F4B5
:100D4000E0604A494860207800F00800082805D192
:100D50004648406840F46050444948604348406811
:100D600020F0F000A168084340494860207800F076
:100D7000010078B36068012806D13C48006800F49F
:100D8000003090B90120B8E76068022806D13748E2
:100D9000006800F0007040B90120AEE733480068F9
:100DA00000F0020008B90120A7E73048406820F0B1
:100DB0000300616808432D494860FFF7C1FE0646FD
:100DC00009E0FFF7BDFE801B41F28831884202D95D
:100DD000032092E707E02548406800F00C006168B6
:100DE000B0EB810FEDD12048006800F00700A84269
:100DF0000ED91D48006820F0070028431A490860F2
:100E00000846006800F00700A84201D0012074E7FE
:100E1000207800F00400042807D11448406820F42A
:100E2000E060E168084311494860207800F008005C
:100E3000082808D10D48406820F46050216940EA34
:100E4000C1000A49486000F03FF808494968C1F309
:100E50000311074A515CC84006490860064800680B
:100E6000FFF794FE002048E70020024000100240F7
:100E700078430008840000207C00002001480068BE
:100E8000704700008400002000B5FFF7F7FF044919
:100E90004968C1F30221034A515CC84000BD00000B
:100EA000001002408843000800B5FFF7E7FF04493F
:100EB0004968C1F3C221034A515CC84000BD00002B
:100EC0000010024088430008F0B585B00FF26C0CAA
:100ED0009CE8E01001A8A0E8E0101CA52D68009592
:100EE00000210022002300240020194D696801F030
:100EF0000C05F5B1042D02D0082D19D101E01548DB
:100F000019E001ADC1F38346AC5D01F4803555B104
:100F10000F4D6D68C5F340451DF805200D4D654327
:100F2000B5FBF2F302E00C4D04FB05F3184602E0BA
:100F300000BF084800BF00BF05B0F0BD02030405B4
:100F4000060708090A0B0C0D0E0F10100102000015
:100F50000010024000127A0000093D00F8B5044676
:100F60000CB90120F8BD207800F00100002878D0ED
:100F7000F848406800F00C0004280CD0F5484068A0
:100F800000F00C00082811D1F248406800F48030CD
:100F9000B0F5803F0AD1EF48006800F40030002827
:100FA0005FD0606800285CD10120DBE700BF60688B
:100FB000B0F5803F06D1E748006840F48030E5494D
:100FC000086028E0606858B9E248006820F4803082
:100FD000E04908600846006820F4802008601AE0B4
:100FE0006068B0F5A02F0BD1DA48006840F480208B
:100FF000D84908600846006840F4803008600AE07C
:10100000D448006820F48030D2490860084600685F
:1010100020F48020086000BF606888B1FFF790FD71
:10102000054606E0FFF78CFD401B642801D903202C
:1010300098E7C848006800F400300028F2D010E0BB
:10104000FFF77EFD054606E0FFF77AFD401B6428AA
:1010500001D9032086E7BF48006800F4003000286B
:10106000F2D1207800F00200022857D1B948406838
:1010700000F00C0050B1B748406800F00C000828A0
:1010800018D1B448406800F4803098B9B14800687D
:1010900000F0020020B12069012801D0012061E7A1
:1010A000AC48006820F0F800616940EAC100A94935
:1010B000086033E02069E8B10120A7490860FFF724
:1010C0003FFD054606E0FFF73BFD401B022801D926
:1010D000032047E79F48006800F002000028F2D094
:1010E0009C48006820F0F800616940EAC100994915
:1010F000086013E0002098490860FFF721FD0546CD
:1011000006E0FFF71DFD401B022801D9032029E757
:101110009048006800F002000028F2D1207800F02A
:10112000080008282DD1A069B8B101208B490860BA
:10113000FFF706FD054606E0FFF702FD401B02280B
:1011400001D903200EE78348406A00F0020000281E
:10115000F2D0012001F09AFF13E000207F490860DF
:10116000FFF7EEFC054606E0FFF7EAFC401B02280D
:1011700001D90320F6E67748406A00F00200002813
:10118000F2D1207800F00400042873D100277148C0
:10119000C06900F0805070B900BF6E48C06940F06F
:1011A00080506C49C8610846C06900F080500090CA
:1011B00000BF00BF01276A48006800F48070B0B922
:1011C0006748006840F4807065490860FFF7B8FC24
:1011D000054606E0FFF7B4FC401B642801D9032054
:1011E000C0E65F48006800F480700028F2D000BFBD
:1011F000E068012806D15748006A40F001005549CF
:10120000086227E0E06858B95248006A20F00100FF
:10121000504908620846006A20F00400086219E09C
:10122000E06805280BD14B48006A40F004004949AA
:1012300008620846006A40F0010008620AE045487A
:10124000006A20F00100434908620846006A20F065
:101250000400086200BFE068A0B1FFF771FC05461A
:1012600009E0FFF76DFC401B41F28831884202D94A
:10127000032077E622E03748006A00F002000028E9
:10128000EFD012E0FFF75CFC054608E0FFF758FCE2
:10129000401B41F28831884201D9032062E62D4883
:1012A000006A00F002000028F0D1012F05D1294882
:1012B000C06920F080502749C86100BFE069C8B309
:1012C0002448406800F00C00082860D0E06902283B
:1012D00048D1002020490866FFF732FC054606E0A9
:1012E000FFF72EFC401B022801D903203AE61948DB
:1012F000006800F000700028F2D1206AB0F5803F4D
:1013000007D11448406820F40030A168084311490F
:101310004860D4E9080108430E49496821F4741172
:1013200008430C49486001200B490866FFF708FC98
:10133000054607E03DE0FFF703FC401B022801D90A
:1013400003200FE60348006800F000700028F2D088
:101350002FE00000001002400000424280044242A0
:1013600000700040002014490866FFF7E9FB0546BD
:1013700006E0FFF7E5FB401B022801D90320F1E559
:101380000E48006800F000700028F2D111E0E0691A
:10139000012800D1E6E50948466806F48031206A54
:1013A000814204D106F47011606A814201D00120AB
:1013B000D8E50020D6E500000000424200100240BF
:1013C00070B504462546681EB0F1807F01D3012028
:1013D0000FE0681E4FF0E02148610F214FF0FF3011
:1013E00002F062FA00204FF0E021886107200861D6
:1013F000002070BD7047704730B502460B4600BFF5
:1014000092F83C00012801D1022030BD012082F871
:101410003C0000BF022082F83D001068446810685C
:10142000816824F070041868044310684460104D0B
:101430001068A8420BD01068B0F1804F07D00D4D56
:101440001068A84203D00C4D1068A84205D121F0C5
:1014500080015868014310688160012082F83D00D6
:1014600000BF002082F83C0000BF00BFCDE70000B5
:10147000002C0140000400400008004010B5044664
:101480000CB9012010BD94F83D0028B9002084F863
:101490003C00204600F026F8022084F83D00211D83
:1014A000206801F059FE012084F8460000BF84F84E
:1014B0003E0001213F2001554020015541200155AA
:1014C00000BF00BF012084F84200432001554420A2
:1014D00001554520015500BF012084F83D00002042
:1014E000D0E7000010B586B00446002002900390BB
:1014F0000490059034492068884236D100BF3348B3
:10150000806940F40060314988610846806900F4D0
:101510000060019000BF00BF00BF0846806940F036
:10152000040088610846806900F00400019000BF53
:1015300000BF4FF44060029000200390022004900E
:1015400002A92348FFF75EF9002211461920FFF790
:101550007DFB1920FFF76AFB002211461B20FFF7D5
:1015600075FB1B20FFF762FB2CE02068B0F1804F79
:1015700016D100BF1548C06940F001001349C86189
:101580000846C06900F00100019000BF00BF0022C2
:1015900011461C20FFF75AFB1C20FFF747FB11E008
:1015A0000C49206888420DD100BF0848C06940F04E
:1015B00004000649C8610846C06900F004000190B3
:1015C00000BF00BF06B010BD002C0140001002405B
:1015D0000008014000080040014691F83D00012844
:1015E00001D001207047022081F83D000868C068E2
:1015F00040F001000B68D860124B086898420BD08D
:101600000868B0F1804F07D00F4B0868984203D0AC
:101610000E4B086898420CD10868806800F00702F9
:10162000062A0CD00868006840F001000B681860BA
:1016300005E00868006840F001000B6818600020B1
:10164000D0E70000002C01400004004000080040EA
:101650002DE9F04104460D4600BF94F83C000128F6
:1016600002D10220BDE8F081012084F83C0000BFD7
:10167000022084F83D002068866826F0770626F46C
:101680007F46206886602868502833D00CDC2028EC
:1016900050D004DC00284BD0102851D149E030282C
:1016A00049D040284CD139E060282DD0702807D08F
:1016B000B0F5805F03D0B0F5005F41D10DE040E0B0
:1016C000D5E902136A68206801F091FD20688668F8
:1016D00046F077062068866033E0D5E902136A6831
:1016E000206801F084FD2068806840F48040216813
:1016F000886026E0EA686968206801F049FE5021A8
:10170000206801F07FFD1CE0EA686968206801F04C
:1017100087FE6021206801F075FD12E0EA686968C3
:10172000206801F035FE4021206801F06BFD08E0E3
:1017300000BF00BF00BF2968206801F063FD00E022
:1017400000BF00BF012084F83D0000BF002084F8E6
:101750003C0000BF00BF85E770B50446794884426D
:1017600079D1207F042876D101037748FFF7DAF991
:10177000002837D10821734800F0DEFC0546FEF74B
:101780008CFE724A03C2724870490CC803C9FEF746
:101790008CFD704A03C26D48D0E900106C4AC2E962
:1017A0000010002213466B4903C9FEF7A3FE07D2BF
:1017B0000022694B674903C9FEF7D6FC654A03C29C
:1017C00064480CC865486649FEF7E7FD654A03C2F0
:1017D00065480068002804D064480068401C6349DC
:1017E0000860AEE00821574800F0A6FC0546FEF769
:1017F00054FE564A03C2564854490CC803C9FEF762
:1018000054FD544A03C25148D0E90010504AC2E97D
:101810000010002213464F4903C9FEF76BFE07D2A2
:1018200000224D4B4B4903C9FEF79EFC494A03C2B7
:1018300048480CC849484E49FEF7AFFD494A03C223
:101840004948006800287CD048480068401E474945
:10185000086076E0FFE73B48844272D1207F082889
:101860006FD101033848FFF75DF9A8BB0C2135485B
:1018700000F062FC0546FEF710FE3E4A03C23E48F9
:101880003C490CC803C9FEF710FD3C4A03C2394964
:1018900003C9394A03C200221346384903C9FEF777
:1018A00029FE07D200222C4B344903C9FEF75CFC09
:1018B000324A03C231480CC828482D49FEF76DFD55
:1018C0002F4A03C22848006800283AD02D480068F3
:1018D000401E2C49086034E0FFE70C21194800F055
:1018E0002BFC0546FEF7D9FD224A03C222482149B6
:1018F0000CC803C9FEF7D9FC204A03C21D4903C91D
:101900001D4A03C2002213461C4903C9FEF7F2FD1B
:1019100007D20022104B194903C9FEF725FC174ACC
:1019200003C216480CC80D480D49FEF736FD144A8F
:1019300003C20D48006820B112480068401C1149DC
:10194000086070BD4C020020000C0140080000201F
:1019500010000020280000200000F0403BB1133BA5
:10196000B1C7024138000020680000204800002074
:10197000B1C702C118000020200000203000002064
:10198000400000204C0000202DE9F04104460D46A7
:10199000164600BF94F83C00012802D10220BDE8A1
:1019A000F081012084F83C0000BF96B9EB68D5E9CE
:1019B0000012206801F000FD2068806920F00C0012
:1019C0002168886120688069A96808432168886166
:1019D0003DE0042E13D1EB68D5E90012206801F038
:1019E00033FD2068806920F44060216888612068A8
:1019F0008069A96840EA01202168886127E0082EF3
:101A000012D1EB68D5E90012206801F03AFD206898
:101A1000C06920F00C002168C8612068C069A9680D
:101A200008432168C86112E0EB68D5E9001220681C
:101A300001F043FD2068C06920F440602168C8615E
:101A40002068C069A96840EA01202168C86100BF18
:101A5000002084F83C0000BF00BFA0E710B504469A
:101A60000CB9012010BD94F83D0028B9002084F87D
:101A70003C00204600F025F8022084F83D00211D9E
:101A8000206801F069FB012084F8460000BF84F85B
:101A90003E0001213F2001554020015541200155C4
:101AA00000BF00BF012084F84200432001554420BC
:101AB00001554520015500BF012084F83D0000205C
:101AC000D0E770472DE9F04104460D4615B994F86A
:101AD0003E000BE0042D02D13F20005D06E0082D02
:101AE00002D14020005D01E04120005D074615B9AC
:101AF00094F842000BE0042D02D14320005D06E083
:101B0000082D02D14420005D01E04520005D8046A3
:101B1000012F02D1B8F1010F02D00120BDE8F08100
:101B20001DB9022084F83E000EE0042D03D10221ED
:101B30003F20015508E0082D03D102214020015526
:101B400002E00221412001551DB9022084F8420023
:101B50000EE0042D03D102214320015508E0082D99
:101B600003D102214420015502E002214520015504
:101B700035B1042D0BD0082D10D00C2D1CD114E044
:101B80002068C06840F002002168C86015E0206845
:101B9000C06840F004002168C8600EE02068C0689A
:101BA00040F008002168C86007E02068C06840F085
:101BB00010002168C86000E000BF00BF0122294674
:101BC000206801F003FB1249206888420BD020688E
:101BD000B0F1804F07D00F492068884203D00E49EA
:101BE000206888420CD12068806800F00706062E25
:101BF0000CD02068006840F001002168086005E012
:101C00002068006840F0010021680860002085E736
:101C1000002C0140000400400008004010B50446BC
:101C200020680069C0F34000D8B12068C068C0F3E4
:101C30004000B0B16FF002002168086101202077F8
:101C40002068806900F0030018B12046FFF784FD8A
:101C500005E0204600F0DAF8204600F08AF900207E
:101C6000207720680069C0F38000D8B12068C06880
:101C7000C0F38000B0B16FF0040021680861022059
:101C800020772068806900F4407018B12046FFF783
:101C900063FD05E0204600F0B9F8204600F069F940
:101CA0000020207720680069C0F3C000D8B1206808
:101CB000C068C0F3C000B0B16FF0080021680861CF
:101CC000042020772068C06900F0030018B1204686
:101CD000FFF742FD05E0204600F098F8204600F0AE
:101CE00048F90020207720680069C0F30010D8B1BF
:101CF0002068C068C0F30010B0B16FF01000216818
:101D00000861082020772068C06900F4407018B18D
:101D10002046FFF721FD05E0204600F077F8204639
:101D200000F027F9002020772068006900F001000A
:101D300058B12068C06800F0010030B16FF00100B8
:101D400021680861204600F07FF920680069C0F32F
:101D5000C01058B12068C068C0F3C01030B16FF037
:101D60008000216808612046FFF744FB2068006975
:101D7000C0F3801058B12068C068C0F3801030B143
:101D80006FF0400021680861204600F0EEF92068FD
:101D90000069C0F3401058B12068C068C0F340101B
:101DA00030B16FF02000216808612046FFF723FB67
:101DB00010BD000010B586B00446002002900390CC
:101DC000049005900E492068884217D100BF0D4845
:101DD000806940F008000B4988610846806900F07E
:101DE0000800019000BF00BF4FF440700290022035
:101DF0000390059002A90448FEF704FD06B010BD4B
:101E00000008004000100240000C0140704770B50F
:101E100004460D46164600BF94F83C00012801D147
:101E2000022070BD012084F83C0000BF36B1042EB2
:101E30001BD0082E31D00C2E5ED145E029462068FB
:101E400001F0EAF92068806940F0080021688861A3
:101E50002068806920F0040021688861206880691A
:101E6000296908432168886147E02946206801F014
:101E700003FA2068806940F4006021688861206866
:101E8000806920F480602168886120688069296900
:101E900040EA0120216888612FE02946206801F08E
:101EA0001FFA2068C06940F008002168C8612068F6
:101EB000C06920F004002168C8612068C0692969F0
:101EC00008432168C86118E02946206801F03CFAFF
:101ED0002068C06940F400602168C8612068C0695A
:101EE00020F480602168C8612068C069296940EADF
:101EF00001202168C86100E000BF00BF00BF0020D2
:101F000084F83C0000BF00BF8BE710B504460CB955
:101F1000012010BD94F83D0028B9002084F83C0051
:101F2000204600F025F8022084F83D00211D20689D
:101F300001F012F9012084F8460000BF84F83E0049
:101F400001213F200155402001554120015500BF8E
:101F500000BF012084F84200432001554420015570
:101F60004520015500BF012084F83D000020D0E746
:101F70007047704770B504460D4615B994F83E0099
:101F80000BE0042D02D13F20005D06E0082D02D1B8
:101F90004020005D01E04120005D012801D00120CA
:101FA00070BD1DB9022084F83E000EE0042D03D15F
:101FB00002213F20015508E0082D03D102214020D5
:101FC000015502E0022141200155012229462068E5
:101FD00001F0FCF819492068884201D1012000E095
:101FE000002028B12068406C40F40040216848641B
:101FF0001249206888420BD02068B0F1804F07D08A
:102000000F492068884203D00E49206888420CD1CD
:102010002068806800F00706062E0CD02068006853
:1020200040F001002168086005E02068006840F089
:102030000100216808600020B2E70000002C014088
:1020400000040040000800402DE9F04104462D48FE
:10205000844208D100222C4B2C4903C9FEF784F896
:102060002A4A03C24BE02A48844248D129480068E2
:10207000C0B9294829490CC803C902F013F82848F7
:1020800028490CC803C902F0C3F80021234A116093
:102090005160244A1160516000202349086023499F
:1020A00008602CE020480068FEF7E6F907468846FD
:1020B0001F480068FEF7E0F905463A46434601F03E
:1020C00027FF1A480068FEF7D7F9074688461948DF
:1020D0000068FEF7D1F905463A46434601F07EFF17
:1020E0001348006810490968884208D111480068FF
:1020F0000E490968884202D1002006490860BDE8FF
:10210000F08100004C0200200000F03F00000020A1
:1021100094020020680000205000002038000020B9
:102120005800002040000020480000204C00002003
:1021300060000020640000200246002031B1042924
:1021400007D0082908D00C290CD108E01368586B77
:1021500009E01368986B06E01368D86B03E0136816
:10216000186C00E000BF00BF7047704770477047B1
:102170002DE9F84F0446206805682068C668206885
:1021800047694FF00009CA4605F00F09B9F1000F81
:102190000AD105F0200038B106F0200020B1204619
:1021A00001F0DEF9BDE8F88FB9F1000F71D007F04A
:1021B000010018B906F4907000286AD005F00100FB
:1021C00030B106F4807018B1206C40F0010020643A
:1021D00005F0040030B107F0010018B1206C40F0A8
:1021E0000200206405F0020030B107F0010018B1D0
:1021F000206C40F00400206405F0080048B106F0AF
:10220000200010B907F0010018B1206C40F0080060
:102210002064206C68B305F0200028B106F020008F
:1022200010B1204601F09CF920684069C0F3801A83
:10223000206C00F0080010B9BAF1000F22D020463F
:1022400001F063F92068406900F04000B0B12068F7
:10225000406920F0400021684861A06B50B15648A9
:10226000A16B4863A06BFEF761FA10B1A06B416BE4
:1022700088470CE02046FFF77AFF08E02046FFF78A
:1022800076FF04E02046FFF772FF0020206489E714
:10229000FFE7206B012878D105F01000002874D0EA
:1022A00006F01000002870D000BF002000902068C9
:1022B0000068009020684068009000BF00BF206860
:1022C000406900F04000C0B3A06B006840681FFA8E
:1022D00080F8B8F1000F2FD0A08D40452CDDA4F878
:1022E0002E80A06B806920281FD02068C06820F451
:1022F00080702168C8602068406920F00100216872
:1023000048612068406920F0400021684861202031
:1023100084F83E00002020632068C06820F0100090
:102320002168C860A06BFEF7D6F9A08DE28D801AF7
:1023300081B22046FFF71AFF34E7FFE7A08DE18D59
:10234000401A1FFA80F8E08DE8B1B8F1000F1AD0FA
:102350002068C06820F490702168C86020684069D7
:1023600020F0010021684861202084F83E00002010
:1023700020632068C06820F010002168C8604146D2
:102380002046FFF7F3FE0DE7FFE705F0800030B1D0
:1023900006F0800018B1204601F0F5F902E705F0DB
:1023A000400030B106F0400018B1204601F0C8F8F6
:1023B000F8E600BFF6E60000F734000810B5044662
:1023C0000CB9012010BDA06900B100E000BF94F875
:1023D0003D0028B9002084F83C00204600F028F891
:1023E000242084F83D002068C06820F40050216853
:1023F000C860204601F026F92068006920F490406A
:10240000216808612068406920F02A00216848613D
:102410002068C06840F400502168C8600020206433
:10242000202084F83D0084F83E000020CAE7000028
:1024300010B586B0044600200290039004900590E9
:102440004049206888423FD100BF3F48806940F43E
:1024500080403D4988610846806900F480400190D1
:1024600000BF00BF00BF0846806940F008008861D7
:102470000846806900F00800019000BF00BF4020BE
:102480000290022003900320059002A92F48FEF736
:10249000B9F98020029000200390049002A92B48F3
:1024A000FEF7B0F900BF2A49486840F0E06040F00C
:1024B0000400486000BF002211462520FEF7C6FB3D
:1024C0002520FEF7B3FB3AE022492068884236D146
:1024D00000BF1D48C06940F480201B49C861084600
:1024E000C06900F48020019000BF00BF00BF084613
:1024F000806940F0080088610846806900F00800A3
:10250000019000BF00BF0815029002200390032035
:10251000059002A90D48FEF775F94FF4006002908E
:1025200000200390049002A90848FEF76BF90022EE
:1025300011462720FEF78AFB2720FEF777FB06B01F
:1025400010BD00000038014000100240000C0140A6
:10255000000001400048004070B504460D46164694
:1025600094F83E00202816D105B10EB9012070BDA7
:1025700000BF94F83C00012801D10220F7E70120B8
:1025800084F83C0000BF00202063324629462046E4
:1025900001F0D6F8EBE70220E9E700002DE9F04171
:1025A00080469F480078FF280FDB00209C49087078
:1025B0004FF480719B48FDF7CCFD4FF6FF730E2260
:1025C00099499A4800F050F923E1994801789448D4
:1025D00002780078401C924B18709248815418463B
:1025E0000078401E8F49085C232819D10020194625
:1025F00008704FF480718B48FDF7ABFD23218848AC
:1026000002780078401C864B187086488154002060
:10261000884908608849086001208849087073E08B
:102620007F480078401E7F49085C242852D18348A7
:10263000007800284ED00020804908707849087042
:1026400001207F4908707F48006810B101207E4951
:1026500008607E480068B42804DC7D480068B0F556
:10266000207F0CDD7BA001F007F900207149086094
:1026700076490860704908607549086044E06D4813
:102680000068002840D06C48006800283CD06E48A4
:10269000006890BB6D4800685A386C4908606C4807
:1026A0000068A0F5A0706A490860002061490860D0
:1026B0006149086066480068FDF7DEFE04460D4685
:1026C00062480068FDF7D8FE064622462B4601F018
:1026D000DBFA19E052480078401E5249085C242871
:1026E0000CD1002055490870594908604C490870C0
:1026F0004FF480714B48FDF72CFD05E04F48007802
:1027000010B900204649087049480078302803DB9A
:1027100047480078392812DD4848007804280BD053
:1027200046480078052807D044480078062803D09A
:1027300042480078072802D10120404908703F48EC
:10274000007804280AD13A480078404909680A22EA
:1027500002FB010030383D49086024E0374800782A
:1027600005280AD132480078394909680A2202FB53
:10277000010030383649086015E0304800780628F6
:1027800005D12B4800783038364908600BE02B48DB
:102790000078072807D12C48006820B92448007821
:1027A0003038284908602548007878B31C480078FC
:1027B000401E1C49085C612806D0632818D0662892
:1027C0001DD0782823D109E004201C49087001207D
:1027D0001849086000201D49086019E005201749C4
:1027E00008700120144908600020194908600FE0B2
:1027F00006201249087000201A49086008E00720E6
:102800000E49087000200F49086001E001E000BF98
:1028100000BF012206490548FFF79EFEBDE8F08192
:1028200039010020AC0300203B01002024030020DC
:1028300038010020600100206401002049010020CF
:102840003A0100206C000020700000204C010020A4
:102850005001002064617461206572726F722020E3
:1028600020000000540100202DE9F84F04460E46D8
:10287000174699464FF0000A94F83D0020285AD197
:1028800006B117B90120BDE8F88F00BF94F83C00ED
:10289000012801D10220F6E7012084F83C0000BFA6
:1028A00000202064212084F83D00FEF749F982468B
:1028B000A784E784A068B0F5805F04D1206910B9CF
:1028C0000025B04602E035464FF0000800BF00206A
:1028D00084F83C0000BF1BE05346002280212046C4
:1028E000CDF8009000F07FFF08B10320CBE745B999
:1028F000B8F80000C0F308002168486008F1020839
:1029000003E02878216848606D1CE08C401EE0845C
:10291000E08C0028E0D15346002240212046CDF82B
:10292000009000F060FF08B10320ACE7202084F89D
:102930003D000020A7E70220A5E7704700BFFEE7A3
:1029400000B585B00020019002900390049000BF74
:102950003B48806940F01000394988610846806929
:1029600000F01000009000BF00BF00BF0846806963
:1029700040F0200088610846806900F02000009047
:1029800000BF00BF00BF0846806940F008008861B2
:102990000846806900F00800009000BF00BF00BF3B
:1029A0000846806940F0040088610846806900F0AC
:1029B0000400009000BF00BF00224FF400512148E6
:1029C000FEF7B8F800224FF400411F48FEF7B2F8B6
:1029D000002208211D48FEF7ADF84FF40050019089
:1029E00001200290002003900220049001A91548C4
:1029F000FDF708FF4FF440400190002002900220B4
:102A0000039001A91148FDF7FDFE4FF4004001902D
:102A100001200290002003900220049001A90A489E
:102A2000FDF7F0FE082001900120029000200390A5
:102A30000220049001A90548FDF7E4FE05B000BDA1
:102A4000001002400010014000080140000C01404D
:102A500000B58BB000200790089009900A9005906F
:102A60000690019002900390049024482449086045
:102A7000472048600021224881604FF6FF71C16005
:102A800000210161416180218161FEF7F7FC08B1FD
:102A9000FDF71EFE4FF48050079007A91848FEF777
:102AA000D7FD08B1FDF714FE1548FEF7D7FF08B1B2
:102AB000FDF70EFE00200590069005A91048FEF7D0
:102AC0009BFC08B1FDF704FE00200190012002905C
:102AD000002003900490082201A90948FEF754FF42
:102AE00008B1FDF7F5FD0C2201A90548FEF74CFFE2
:102AF00008B1FDF7EDFD0BB000BD0000002C01405A
:102B00004C02002000B587B000200390049005908F
:102B10000690019002904FF08040144908604720D1
:102B2000486000211148816041F28731C160002175
:102B3000016180218161FEF7A1FC08B1FDF7C8FDAC
:102B40004FF48050039003A90848FEF781FD08B1B7
:102B5000FDF7BEFD00200190029001A90348FEF799
:102B60004BFC08B1FDF7B4FD07B000BD9402002096
:102B700000B58DB0002009900A900B900C90079042
:102B800008901C216846FDF7E4FA244824490860AF
:102B9000002048600021224881604EF66021C1601B
:102BA0000021016180218161FEF768FC08B1FDF719
:102BB0008FFD4FF48050099009A91948FEF748FD90
:102BC00008B1FDF785FD1648FFF79FF908B1FDF73D
:102BD0007FFD00200790089007A91148FEF70CFC24
:102BE00008B1FDF775FD6020009000200190029073
:102BF0000490082269460A48FFF709F908B1FDF771
:102C000067FD0C2269460648FFF701F908B1FDF798
:102C10005FFD0348FFF7CEF80DB000BD000800408F
:102C2000DC02002010B50B480B4908604FF4E1307E
:102C30004860002108488160C16001610C21416148
:102C400000218161C161FFF7B9FB08B1FDF740FDCB
:102C500010BD0000003801402403002010B50B48CF
:102C60000B4908604FF4E13048600021084881605A
:102C7000C16001610C21416100218161C161FFF7E7
:102C80009DFB08B1FDF724FD10BD00000048004089
:102C90006803002000BFFEE710B50B48FEF79CFC60
:102CA0000A48FEF799FC08210748FEF70BFF0C21A4
:102CB0000548FEF707FF08210548FFF75BF90C21DF
:102CC0000348FFF757F910BD4C0200209402002082
:102CD000DC02002000BFFEE72DE9F04F89B004467A
:102CE0000D4616461F4632463B4620462946FDF70E
:102CF000DCFA2A4A03C22A480CC800204FF080415F
:102D0000FDF7D9FA824625480CC85046FDF7D0FA9F
:102D1000CDE9000123480CC80098FDF725FA80464C
:102D2000214A224BFDF7C7FACDE904011B480CC824
:102D30001F482049FDF7BFFACDE90001184817499F
:102D40000CC803C9FDF7B1FA804600221A4BFDF703
:102D5000B2FA8246DDE90023FDF706FACDE9020169
:102D6000DDE90423FDF700FACDE9060113480CC89C
:102D70000698FDF7F9F9114A03C20948D0E9001095
:102D8000084AC2E900100548D0E90010044AC2E927
:102D900000100A4903C909B0BDE8F08F880000207F
:102DA000A0000020A80000207B14AE47E17A843FF9
:102DB0009A9999999999C93F0000E03FB000002085
:102DC0002DE9F04F87B006460F46904699460022FF
:102DD0002B4B2C4903C9FDF78DFB0BD200222A4B4C
:102DE000284903C9FDF79EFB04D200212748284A41
:102DF000C2E9001042464B4630463946FDF755FAC7
:102E0000204A03C21F4823490CC803C9FDF7ACF987
:102E1000204A03C220481B490CC803C9FDF745FAE4
:102E20001E4A03C21E481F490CC803C9FDF743FAD6
:102E3000CDE904011C4816490CC803C9FDF73BFA4B
:102E4000CDE900010F4819490CC803C9FDF733FA51
:102E50008246DDE90023FDF787F9CDE90201DDE9CE
:102E60000423FDF781F904460D460648D0E9001019
:102E7000094AC2E900102046294607B0BDE8F08F94
:102E800000C07240F800002000C072C000408F40B7
:102E9000E000002018010020080100202801002087
:102EA00098000020F000002090000020D8000020B2
:102EB0002DE9F04F87B006460F469046994600220E
:102EC0002B4B2C4903C9FDF715FB0BD200222A4BD3
:102ED000284903C9FDF726FB04D200212748284AC8
:102EE000C2E9001042464B4630463946FDF7DDF94F
:102EF000204A03C21F4823490CC803C9FDF734F90F
:102F0000204A03C220481B490CC803C9FDF7CDF96C
:102F10001E4A03C21E481F490CC803C9FDF7CBF95E
:102F2000CDE904011C4816490CC803C9FDF7C3F9D3
:102F3000CDE900010F4819490CC803C9FDF7BBF9D9
:102F40008246DDE90023FDF70FF9CDE90201DDE955
:102F50000423FDF709F904460D460648D0E90010A0
:102F6000094AC2E900102046294607B0BDE8F08FA3
:102F700000C072400001002000C072C000408F40BD
:102F8000E800002020010020100100203001002076
:102F900098000020F000002090000020D8000020C1
:102FA0002DE9F04F89B004460D4616461F463246BD
:102FB0003B4620462946FDF778F92A4A03C22A48AB
:102FC0000CC800204FF08041FDF775F98246254876
:102FD0000CC85046FDF76CF9CDE9000123480CC838
:102FE0000098FDF7C1F88046214A224BFDF763F9AE
:102FF000CDE904011B480CC81F482049FDF75BF9C7
:10300000CDE90001184817490CC803C9FDF74DF96F
:10301000804600221A4BFDF74EF98246DDE9002377
:10302000FDF7A2F8CDE90201DDE90423FDF79CF8E4
:10303000CDE9060113480CC80698FDF795F8114A2A
:1030400003C20948D0E90010084AC2E90010054847
:10305000D0E90010044AC2E900100A4903C909B0C6
:10306000BDE8F08FB8000020C0000020C80000209C
:103070007B14AE47E17A843F9A9999999999C93F0F
:103080000000E03FD00000207047000008B508496C
:103090000968C9084FF47A72B1FBF2F1414300911B
:1030A00000BF00BF00994A1E00920029F9D108BD57
:1030B00084000020704710B5FDF748FD10BD00B535
:1030C0008FB0282105A8FDF744F814216846FDF7C4
:1030D00040F8012005900004069000200790012090
:1030E000099002200C90C1030D914FF4E0110E9154
:1030F00005A8FDF733FF08B1FDF7EAFA0F200090AD
:1031000002200190002002904FF480600390002084
:10311000049002216846FDF7EBFD08B1FDF7D8FAEF
:103120000FB000BD7047000010B50248FEF776FDF5
:1031300010BD00004C02002010B50248FEF76EFDE5
:1031400010BD00004C02002010B50248FEF766FDDD
:1031500010BD00009402002010B50268184B984280
:1031600008D0B0F1804F05D0164B984202D0164BD4
:10317000984203D122F070024B681A43104B9842D8
:1031800008D0B0F1804F05D00E4B984202D00E4BC4
:10319000984203D122F44072CB681A4322F0800394
:1031A0004C6943EA040202608B68C3620B68836265
:1031B000034B984201D10B6903630123436110BDA6
:1031C000002C0140000400400008004030B501F030
:1031D0001F05012404FA05F3046A9C430462046A8F
:1031E00001F01F0502FA05F52C43046230BD30B52D
:1031F0000C46816821F47F4142EA03252543294397
:10320000816030BD0A46816821F0700142F00703F9
:10321000194381607047000030B5056A25F001054B
:103220000562026A4368846924F0700424F0030490
:103230000D682C4322F002028D682A430D4DA842EE
:1032400006D100BF22F00802CD682A4322F0040212
:10325000084DA84207D123F4807323F400734D690D
:103260002B438D692B43436084614D684563026243
:1032700030BD0000002C014030B5056A25F0100576
:103280000562026A4368846924F4E04424F44074CB
:103290000D6844EA052422F020028D6842EA0512F6
:1032A0000E4DA84207D100BF22F08002CD6842EA4D
:1032B000051222F04002094DA84209D123F480638F
:1032C00023F400634D6943EA85038D6943EA85036E
:1032D000436084614D688563026230BD002C01400B
:1032E00030B5056A25F480750562026A4368C469D1
:1032F00024F0700424F003040D682C4322F40072BF
:103300008D6842EA05220F4DA84207D100BF22F482
:103310000062CD6842EA052222F48062094DA8428B
:1033200009D123F4805323F400534D6943EA051374
:103330008D6943EA05134360C4614D68C563026249
:1033400030BD0000002C014030B5056A25F48055E1
:103350000562036A4468C26922F4E04222F44072C2
:103360000D6842EA052223F400538D6843EA0533D1
:10337000064DA84204D124F480444D6944EA8514E2
:103380004460C2614D680564036230BD002C014099
:1033900030B50B461446026A056A25F00105056240
:1033A000816921F0F00141EA041122F00A021A4376
:1033B0008161026230BD000070B50C461546066A98
:1033C00026F0010606628169026A124EB04208D0F8
:1033D000B0F1804F05D0104EB04202D00F4EB04237
:1033E00001D1012600E000261EB121F0030129438E
:1033F00001E041F0010121F0F001F02606EA031698
:10340000314322F00A0204F00A063243816102626B
:1034100070BD0000002C0140000400400008004086
:1034200030B50B461446056A25F010050562816922
:10343000026A21F4704141EA043122F0A00242EA1A
:1034400003128161026230BD70B50C461546066AF2
:1034500026F0100606628169026A21F4407141EA91
:10346000052121F470414FF4704606EA03363143DA
:1034700022F0A002A02606EA04163243816102620D
:1034800070BD70B50C461546066A26F48076066255
:10349000C169026A21F00301294321F0F001F026FD
:1034A00006EA0316314322F400724FF4007606EA6E
:1034B00004263243C161026270BD70B50C461546E8
:1034C000066A26F480560662C169026A21F44071D8
:1034D00041EA052121F470414FF4704606EA0336B3
:1034E000314322F400524FF4005606EA04363243C8
:1034F000C161026270BD70B505466C6A0020E0854E
:10350000E0842046FEF733FE70BD0168C96821F4EF
:1035100090710268D1600168496921F00101026877
:103520005161016B012905D10168C96821F01001C1
:103530000268D160202180F83E10002101637047AD
:1035400010B504462068C06820F040002168C860BB
:10355000202084F83D002046FFF7EFF9002010BD41
:10356000F8B5044694F83E00222869D1A068B0F569
:10357000805F0CD1206950B90025A66A2068406898
:10358000C0F308003080A06A801CA06215E0A56A24
:103590000026A068B0F5805F03D0A06828B9206934
:1035A00018B920684068287004E02068406800F07E
:1035B0007F002870A06A401CA062E08D401E80B28F
:1035C000E085A8BB2068C06820F020002168C860A2
:1035D0002068C06820F480702168C8602068406955
:1035E00020F0010021684861202084F83E00206B13
:1035F00001281ED1002020632068C06820F0100040
:103600002168C8602068006800F0100010280AD106
:1036100000BF00200090206800680090206840688B
:10362000009000BF00BFA18D2046FEF79FFD03E084
:1036300004E02046FEF7B2FF0020F8BD0020FCE7C2
:103640000220FAE770B504462168096921F4405167
:10365000E2681143226811612269A168114362691D
:1036600041EA02052168C96841F20C62914329438D
:103670002268D1602168496921F44071A26911432F
:10368000226851612D4A2168914202D1FDF70CFC5C
:1036900001E0FDF7F9FB00EBC00101EB00116268EE
:1036A0009200B1FBF2F100EBC00202EB0012636882
:1036B0009B00B2FBF3F26423B2FBF3F202EBC20312
:1036C00003EB0212A1EB8201322202EB0111642210
:1036D000B1FBF2F101F0F00100EBC00202EB0012CD
:1036E00063689B00B2FBF3F26423B2FBF3F201EBDD
:1036F000021200EBC00101EB001163689B00B1FBFB
:10370000F3F100EBC00303EB00136668B600B3FBF4
:10371000F6F36426B3FBF6F303EBC30606EB0313E1
:10372000A1EB8301322303EB01116423B1FBF3F11D
:1037300001F00F0111442268916070BD0038014012
:1037400010B5034699629A85DA8500201864222014
:1037500083F83E0000BF002083F83C0000BF1868DB
:10376000C06840F480701C68E0601868406940F0F0
:1037700001001C6860611868C06840F020001C6887
:10378000E060002010BD014691F83D00212828D1BD
:103790008868B0F5805F0BD1086948B90A6A10885B
:1037A000C0F308000B685860086A801C086205E0D6
:1037B0000B6A581C086218780B685860C88C401E49
:1037C00080B2C88458B90868C06820F080000B68CF
:1037D000D8600868C06840F040000B68D8600020DE
:1037E00070470220FCE72DE9F04104460D461746DC
:1037F0009846069E21E0701CF8B12EB1FDF7A0F9A5
:10380000A0EB0800B04218D92068C06820F4D0703E
:103810002168C8602068406920F001002168486183
:10382000202084F83D0084F83E0000BF002084F88A
:103830003C0000BF0320BDE8F081206800682840FC
:10384000A84201D1012000E00020B842D3D00020DE
:10385000F1E7000010B50248FEF78AFC10BD000039
:103860002403002010B50248FEF782FC10BD0000C2
:103870006803002000BFFEE70FB4054B10B503A995
:10388000044A029800F033F810BC5DF814FB000005
:10389000C13A00084802002002480068C0F3022034
:1038A000704700000CED00E010B5002804DB0A07AB
:1038B000130E054A135406E00A07140E034A00F0DB
:1038C0000F031B1FD45410BD00E400E018ED00E00E
:1038D00002E008C8121F08C1002AFAD170477047D9
:1038E000002001E001C1121F002AFBD170472DE921
:1038F000F84F9946924688460546002706E0252857
:103900000AD051464A4690476D1C7F1C28780028F3
:10391000F5D13846BDE8F88F002315F8011F184689
:103920002E2915D115F8011F04232A290DD06FF077
:103930002F022978A1F13004092C09D800EB80006E
:1039400002EB400008446D1CF3E758F8040B6D1CB3
:103950002A78002ADDD0632A07D0732A0FD01046B8
:1039600051464A4690477F1C2AE018F8042B8DF8F0
:10397000002000218DF801106E46012103E058F867
:10398000046B4FF0FF315A074FF0000401D409E0F7
:10399000641C84420BDA8C42FADB325D002AF7D1D8
:1039A00005E0641C8C42FCDB305D0028F9D1274423
:1039B00004E016F8010B51464A469047641EF8D2BF
:1039C0006D1CA3E710B50021214A11605160002051
:1039D000204A10605060204A116051601F4A1160F7
:1039E00051601F4A116051601E4A116051601E49AA
:1039F0001E481F4AC2E9001008461C491D4A03C25E
:103A00001420FCF7EBFE18491B48194AC2E90010C4
:103A1000184AC2E900101420FCF7E0FE4FF03330E2
:103A20001649134A03C201461448124AC2E900105B
:103A30001420FCF7D3FE0C4911480D4AC2E90010CE
:103A40000C4AC2E900101420FCF7C8FE10BD0000AB
:103A500088000020A0000020A8000020B80000205E
:103A6000C0000020C80000209A9999999999B93FFF
:103A700050000020580000209999C93F3333D33FAC
:103A80009999D93F10B54FF033310A480A4AC2E933
:103A900000100A4AC2E900101420FCF79FFE002122
:103AA000054A11605160054A116051601420FCF70D
:103AB00095FE10BD3333D33F500000205800002046
:103AC00013B50C464FF6FF73012269460248FEF714
:103AD000CBFE00981CBD000024030020FDF742F837
:103AE000FFF7EDFAFEF72CFFFEF7B2FFFFF740F805
:103AF000FFF708F80021514A11605160504A1160E7
:103B000051604FF4FA70FCF769FEFFF78BF8FFF78E
:103B1000A5F8FFF7C1F801224A494B48FEF71CFD02
:103B20004AA0FFF7A9FE88E04A48007868B14A49F0
:103B30004AA0FFF7A1FE0020464908704C490870D2
:103B40004FF480714448FCF704FB4A48006818B9F8
:103B50000020494908606DE04648006801280DD101
:103B600045490860FFF78EFF0021344A116051601B
:103B70000020334A1060506000BFFEE73D480068F7
:103B8000022826D101203C490860FFF77BFF002076
:103B90002A4A106050600021294A1160516041F2A8
:103BA0008830FCF71BFEFFF70DFF34493448234AE9
:103BB000C2E900104FF033303249214A03C24FF4BA
:103BC0009670FCF70BFE00202A4908602A4908601D
:103BD00030E028480068032805D100202549086006
:103BE0002549086026E023480068042805D1002004
:103BF00020490860204908601CE01E48006806282B
:103C000005D100201B4908601B49086012E01948D3
:103C10000068052805D1002016490860164908608B
:103C200008E014480068072804D100201149086002
:103C30001149086000201049086075E75000002015
:103C400058000020380100202403002072656164C0
:103C5000790000003A010020AC030020726563691E
:103C6000766520627566662069732025730D0A00EB
:103C7000390100206C000020700000209A99999969
:103C80009999E13F3333E33F2DE9FF5F06460F4645
:103C900014461D460022834B30463946FCF72AFC69
:103CA00041D20022804B30463946FCF73BFC3AD2E9
:103CB0007E48C0C008387E490CC803C9FCF754FAD6
:103CC0007B4A03C27B4879490CC803C9FCF7EDFA6B
:103CD000794A03C2784879490CC803C9FCF7EBFA62
:103CE000CDE90201724876490CC803C9FCF7E3FA32
:103CF000804689466D4873490CC803C9FCF7DBFA56
:103D0000824642464B46FCF72FFACDE90001DDE939
:103D10000223FCF729FA6C4A03C26448D0E9001078
:103D2000644AC2E900100022684B20462946FCF78D
:103D3000E1FB7DD20022664B20462946FCF7F2FBD0
:103D4000F7D20022634B20462946FCF70DFA0446C1
:103D50000D46614830C0083860490CC803C9FCF7FB
:103D600003FA5E4A03C25E485B490CC803C9FCF70C
:103D70009CFA5C4A03C25B485B490CC803C9FCF768
:103D80009AFACDE90201554858490CC803C9FCF715
:103D900092FA80468946504855490CC803C9FCF739
:103DA0008AFA824642464B46FCF7DEF9CDE900012D
:103DB000DDE90223FCF7D8F94E4A03C242484E49D6
:103DC0000CC803C9FCF777FA8046894649484B4935
:103DD0000CC803C9FCF76FFACDE9020148480CC8CA
:103DE0000298FCF7C1F9824642464B46FCF7BCF903
:103DF000444A03C24FF03332434B424903C9FCF7F4
:103E000091FB05D24FF033313F483E4AC2E90010E2
:103E1000002213463B4903C9FCF76CFB03D2002187
:103E2000384A11605160284833490CC803C900E082
:103E300036E0FCF740FA82468B462E482F490CC8E4
:103E400003C9FCF738FA80462D480CC84046FCF7F9
:103E50002FFA52465B46CDE90201FCF726FA2B4ABF
:103E600003C24FF03332284B284903C9FCF75AFBF1
:103E700005D24FF033312448244AC2E90010002211
:103E80001346224903C9FCF735FB03D200211F4A20
:103E9000116051601048D0E90010114AC2E90010C9
:103EA000BDE8FF9F00805140008051C0D00100203C
:103EB000E0010020D8010020E8010020C801002016
:103EC000C0010020B8010020F00100200000744073
:103ED000000074C000003440280200203802002096
:103EE00030020020400200202002002018020020A2
:103EF00010020020F801002000020020080200202B
:103F0000B0010020500000203333F33F5800002060
:103F10002DE9FF4782B081468A4648465146DDE991
:103F20000423FEF74DFF04460D46002213462046AB
:103F30002946FCF7F7FA2CD2012208212448FCF785
:103F4000F9FD22462B4600202249FCF7AEF9064631
:103F5000FCF7B0FA8046B8F1000F01DA4FF0000824
:103F60004046FCF789FA00221A4BCDE90001FCF724
:103F7000D9FA02D20020174902E04046FCF77CFA49
:103F80000646FCF797FA804613480068C0F83C8064
:103F90001AE0002208210E48FCF7CCFD85F0004510
:103FA00000220C4B20462946FCF7BCFA02D2002026
:103FB000084901E0204629460746FCF77BFA0646F9
:103FC00005490968CE6300BF06B0BDE8F087000070
:103FD000000C0140004CED40DC0200202DE9FF47C1
:103FE00082B081468A4648465146DDE90423FEF701
:103FF0005FFF04460D460022134620462946FCF783
:1040000079FA2CD20122D1032348FCF793FD2246F2
:104010002B4600202149FCF748F90646FCF74AFAEE
:104020008046B8F1000F01DA4FF001084046FCF776
:1040300023FA0022194BCDE90001FCF773FA02D2F2
:104040000020164902E04046FCF716FA0646FCF747
:1040500031FA804612480068C0F8408019E000221A
:104060004FF400410C48FCF765FD00220B4B204645
:104070002946FCF757FA02D20020084901E0204601
:1040800029460746FCF716FA0646054909680E64F4
:1040900000BF06B0BDE8F08700080140004CED40CD
:1040A000DC0200202DE9FF5F86B016461F46002285
:1040B0004E4B30463946FCF7FEF880464C4A4D4B95
:1040C000FCF76BF982464C4A4C4BFCF766F9CDE99C
:1040D000040104A80FC8FEF7FFFD04460D460022A8
:1040E000134630463946FCF71DFA41D20122082119
:1040F0004348FCF71FFD0022134620462946FCF7E3
:10410000F9F901D20024254600223E4B20462946DB
:10411000FCF7D1F8804600223B4BFCF73EF9002229
:10412000384BCDE90001FCF7C3F8CDE90201FCF7FB
:10413000C1F98246BAF1000F01DA4FF0010A504688
:10414000FCF79AF900222F4BCDE90201FCF7EAF9BE
:1041500002D200202B4902E05046FCF78DF9804640
:10416000FCF7A8F9824629480068C0F83CA039E06D
:10417000002208212248FCF7DDFC002213462046DD
:104180002946FCF7CFF901D20024254685F00041ED
:10419000A04600221B4B4046FCF78DF800221A4B2C
:1041A000CDE90001FCF7F9F8CDE90201FCF782F94D
:1041B00082465046FCF760F90022124BCDE902011D
:1041C000FCF7B0F902D200200E4902E05046FCF79D
:1041D00053F98046FCF76EF982460C480068C0F837
:1041E0003CA000BF0AB0BDE8F09F000000004E40B8
:1041F0004AD8124DFB210940FCA9F1D24D62B03FD3
:10420000000C0140004CED4000E07540DC02002055
:104210002DE9FF5F86B016461F4600224D4B304603
:104220003946FCF748F880464B4A4C4BFCF7B5F84A
:1042300082464B4A4B4BFCF7B0F8CDE9040104A889
:104240000FC8FEF7ADFE04460D4600221346304669
:104250003946FCF767F937D200224FF40041424853
:10426000FCF768FC0022134620462946FCF742F979
:1042700001D20024254600223C4B20462946FCF76B
:104280001AF8804600223A4BFCF787F8CDE9020184
:10429000FCF710F982465046FCF7EEF80022334B4B
:1042A000CDE90201FCF73EF902D200202F4902E0DD
:1042B0005046FCF7E1F88046FCF7FCF882462D48B2
:1042C0000068C0F840A041E00122D1032648FCF775
:1042D00031FC0022134620462946FCF723F901D27F
:1042E000002425460022214B20462946FBF7E3FF08
:1042F000804600221E4BFCF750F800221B4BCDE9F4
:104300000001FBF731FFCDE90201FCF7D3F882464B
:10431000BAF1000F01DA4FF0000A5046FCF7ACF892
:104320000022124BCDE90201FCF7FCF802D200207A
:104330000E4902E05046FCF79FF88046FCF7BAF8B9
:1043400082460C480068C0F840A000BF0AB0BDE833
:10435000F09F000000004E404AD8124DFB2109405A
:10436000FCA9F1D24D62B03F00080140004CED4085
:1043700000E07540DC0200200000000000000000AA
:1043800001020304060708090000000001020304FB
:10439000B0430008000000204C0200007406000832
:1043A000304400084C02002064060000E038000899
:1043B00001503A33016BD33F08230C032904011445
:1043C00032104201035724F4635940BBF03F085BAD
:1043D000C06218013D000E206572726F72283E3275
:1043E0003536290D0A3A33015812E33F2D431CEBB1
:1043F000E2366A3FDAE6C6F484253E98FAE8180900
:104400001C30CAE0D03178087B14AE47E17A9410B2
:1044100001281814FCA9F1D24D62603F6132553079
:104420002AA9333F48E17A4ADAE9480A23D05800FA
:04000005080000ED02
:00000001FF
